:020000040800F2
:10000000005000208D450008DD450008DD45000852
:10001000DD450008DD450008DD4500080000000062
:10002000000000000000000000000000DD450008A6
:10003000DD45000800000000DD45000849450008D6
:10004000DD450008DD450008DD450008DD45000808
:10005000DD450008DD4500089D3B0008C13B000868
:10006000E53B0008093C00082D3C0008DD45000880
:10007000DD450008DD450008DD450008DD450008D8
:10008000DD450008DD450008DD450008DD450008C8
:10009000DD450008DD450008DD450008DD450008B8
:1000A000DD450008DD450008DD450008DD450008A8
:1000B00025400008994000080D410008DD45000872
:1000C000DD450008DD450008DD4500083543000832
:1000D0008D430008DD450008DD450008DD450008CA
:1000E000DD450008DD45000800000000DD45000892
:1000F000DD450008DD450008DD450008DD45000858
:10010000DD450008DD450008DD450008DD45000847
:10011000DD450008DD450008DD450008DD45000837
:10012000DD450008DD450008DD450008DD45000827
:1001300010B5054C237833B9044B13B10448AFF321
:1001400000800123237010BD580000200000000033
:100150002846000808B5034B1BB103490348AFF319
:10016000008008BD000000005C0000202846000858
:10017000034613F8012B002AFBD1181A01387047E7
:1001800080F0004002E000BF81F0004142001FBF4C
:100190005FEA410392EA030F7FEA226C7FEA236C55
:1001A0006AD04FEA1262D2EB1363C1BFD21841404A
:1001B00048404140B8BF5B42192B88BF704710F0E0
:1001C000004F40F4000020F07F4018BF404211F083
:1001D000004F41F4000121F07F4118BF494292EAEB
:1001E000030F3FD0A2F1010241FA03FC10EB0C0017
:1001F000C3F1200301FA03F100F0004302D54942A4
:1002000060EB4000B0F5000F13D3B0F1807F06D350
:1002100040084FEA310102F10102FE2A51D2B1F148
:10022000004F40EBC25008BF20F0010040EA03003D
:100230007047490040EB0000013A28BFB0F5000FBD
:10024000EDD2B0FA80FCACF1080CB2EB0C0200FA73
:100250000CF0AABF00EBC25052421843BCBFD040C2
:100260001843704792F0000F81F4000106BF80F43C
:1002700000000132013BB5E74FEA41037FEA226CFF
:1002800018BF7FEA236C21D092EA030F04D092F0CA
:10029000000F08BF0846704790EA010F1CBF0020FE
:1002A000704712F07F4F04D1400028BF40F000405B
:1002B000704712F100723CBF00F50000704700F07B
:1002C000004343F0FE4040F4000070477FEA2262A2
:1002D00016BF08467FEA23630146420206BF5FEA73
:1002E000412390EA010F40F4800070474FF0000373
:1002F00004E000BF10F0004348BF40425FEA000C3A
:1003000008BF704743F0964301464FF000001CE0E1
:1003100050EA010208BF70474FF000030AE000BF37
:1003200050EA010208BF704711F0004302D5404275
:1003300061EB41015FEA010C02BF844601460020E7
:1003400043F0B64308BFA3F18053A3F50003BCFA02
:100350008CF2083AA3EBC25310DB01FA02FC6344AF
:1003600000FA02FCC2F12002BCF1004F20FA02F2B6
:1003700043EB020008BF20F00100704702F12002A9
:1003800001FA02FCC2F1200250EA4C0021FA02F20A
:1003900043EB020008BF20EADC7070474FF0FF0C0F
:1003A0001CEAD0521EBF1CEAD15392EA0C0F93EA0A
:1003B0000C0F6FD01A4480EA010C400218BF5FEAAC
:1003C00041211ED04FF0006343EA501043EA51111F
:1003D000A0FB01310CF00040B1F5000F3EBF490019
:1003E00041EAD3715B0040EA010062F17F02FD2A1D
:1003F0001DD8B3F1004F40EBC25008BF20F0010000
:10040000704790F0000F0CF0004C08BF49024CEA16
:10041000502040EA51207F3AC2BFD2F1FF0340EAA8
:10042000C250704740F400004FF00003013A5DDC19
:1004300012F1190FDCBF00F000407047C2F100025A
:10044000410021FA02F1C2F1200200FA02FC5FEA47
:10045000310040F1000053EA4C0308BF20EADC7091
:10046000704792F0000F00F0004C02BF400010F403
:10047000000F013AF9D040EA0C0093F0000F01F0B0
:10048000004C02BF490011F4000F013BF9D041EAD2
:100490000C018FE70CEAD15392EA0C0F18BF93EAD4
:1004A0000C0F0AD030F0004C18BF31F0004CD8D1FE
:1004B00080EA010000F00040704790F0000F17BF85
:1004C00090F0004F084691F0000F91F0004F14D0CB
:1004D00092EA0C0F01D142020FD193EA0C0F03D123
:1004E0004B0218BF084608D180EA010000F0004026
:1004F00040F0FE4040F40000704740F0FE4040F401
:10050000400070474FF0FF0C1CEAD0521EBF1CEA9F
:10051000D15392EA0C0F93EA0C0F69D0A2EB0302BD
:1005200080EA010C49024FEA402037D04FF0805357
:1005300043EA111143EA10130CF000408B4238BF1C
:100540005B0042F17D024FF4000C8B4224BF5B1A2A
:1005500040EA0C00B3EB510F24BFA3EB510340EA78
:100560005C00B3EB910F24BFA3EB910340EA9C0026
:10057000B3EBD10F24BFA3EBD10340EADC001B0196
:1005800018BF5FEA1C1CE0D1FD2A3FF650AF8B423A
:1005900040EBC25008BF20F0010070470CF0004C47
:1005A0004CEA50207F32C2BFD2F1FF0340EAC25072
:1005B000704740F400004FF00003013A37E792F033
:1005C000000F00F0004C02BF400010F4000F013A91
:1005D000F9D040EA0C0093F0000F01F0004C02BF8C
:1005E000490011F4000F013BF9D041EA0C0195E7F5
:1005F0000CEAD15392EA0C0F08D142027FF47DAF8E
:1006000093EA0C0F7FF470AF084676E793EA0C0F7D
:1006100004D14B023FF44CAF08466EE730F0004C7B
:1006200018BF31F0004CCAD130F000427FF45CAF0B
:1006300031F000437FF43CAF5FE700BF42000ED2D1
:10064000B2F1FE4F0BD34FF09E03B3EB126209D40D
:100650004FEA002343F0004323FA02F070474FF0C3
:100660000000704712F1610F01D1420202D14FF038
:10067000FF3070474FF00000704700BF80B584B076
:1006800000AF194A3B1D07CA83E807003B1D194606
:10069000002002F0D5F901233B7100237B713B1D43
:1006A0001946012002F0CCF906233B7100237B712F
:1006B0003B1D1946022002F0C3F908233B710023B9
:1006C0007B713B1D1946032002F0BAF909233B71E7
:1006D00000237B713B1D1946042002F0B1F900BFD5
:1006E0001037BD4680BD00BF4046000880B500AF52
:1006F00002F0ACFA00BF80BD80B500AF002002F070
:1007000069FC0346012B01D1012300E000231846B8
:1007100080BD80B500AF012002F05CFC0346012BD8
:1007200001D1012300E00023184680BD80B500AF51
:10073000032002F04FFC0346012B01D1012300E00E
:100740000023184680BD80B500AF022002F042FCB5
:100750000346012B01D1012300E00023184680BD90
:1007600080B500AF042002F035FC0346012B01D117
:10077000012300E00023184680BD80B500AF0420AF
:1007800002F028FC0346012B01D1012300E00023E5
:10079000184680BD80B500AF002002F01BFC034668
:1007A000012B01D1012300E00023184680BD80B554
:1007B00082B000AF78607B681B68984700BF08373D
:1007C000BD4680BD80B582B000AF786039607B687F
:1007D00093F8DA30013B042B25D801A252F823F01C
:1007E000F5070008FF0700080908000813080008BB
:1007F0001D0800083968786800F01AF814E03968B4
:10080000786800F0DFF90FE03968786800F05AF88E
:100810000AE03968786800F0F5F905E03968786829
:1008200000F041FA00E000BF00BF0837BD4680BDC0
:1008300080B582B000AF786039603B685B689847EC
:100840007B6893F8DA207B6883F8D9203B689B6942
:1008500098470346002B1BD07B6893F8E130012BAF
:100860000CD17B68002283F8E1207B68002283F8AA
:10087000E2207B68032283F8DA201EE07B6893F88D
:10088000E130022B19D17B68022283F8DA2014E0D0
:100890003B689B6898470346002B04D07B68012285
:1008A00083F8E12009E03B68DB6898470346002BAA
:1008B00003D07B68022283F8E12000BF0837BD46E1
:1008C00080BD000090B583B000AF786039603B68B0
:1008D0005B6898477B6893F8DA207B6883F8D920B7
:1008E0003B689B6998470346002B11D001F030FC10
:1008F000786800F09FFB7B68D3F8D03098470246B9
:100900007B68C3F8DC207B68042283F8DA2051E19D
:100910003B681B6998470346002B21D0A74B1B78E7
:1009200019467B6893F8E2301846A54A0B469B00AF
:100930000B445B001344034402331B782D2B00F05F
:1009400039817B6893F8E230062B00F233817B68B3
:1009500093F8E2300133DAB27B6883F8E22029E1D0
:100960003B685B6998470346002B0ED07B6893F881
:10097000E230002B00F01E817B6893F8E230013BEF
:10098000DAB27B6883F8E22014E13B689B68984701
:100990000346002B00F0A480884B1B7819467B6827
:1009A00093F8E2301846864A0B469B000B445B00E6
:1009B0001344034402331B782D2B28D17B6893F812
:1009C000E230002B11D17D4B1B7819467B6893F8E0
:1009D000E23018467A4A0B469B000B445B001344F6
:1009E0000344023341221A70E4E0744B1B78194629
:1009F0007B6893F8E2301846714A0B469B000B4423
:100A00005B0013440344023361221A70D2E06B4B43
:100A10001B7819467B6893F8E2301846684A0B4603
:100A20009B000B445B001344034402331B78592B97
:100A300020D87B6893F8E230002B1BD15F4B1B78EA
:100A40001A467B6893F8E23019465D4813469B00CE
:100A500013445B0003440B4402331B780133DCB2C4
:100A6000574813469B0013445B0003440B44023376
:100A700022461A70514B1B7819467B6893F8E23076
:100A800018464F4A0B469B000B445B00134403443B
:100A900002331B78792B00F28D807B6893F8E2306B
:100AA000002B00F08780454B1B781A467B6893F833
:100AB000E2301946424813469B0013445B0003444E
:100AC0000B4402331B780133DCB23D4813469B00D4
:100AD00013445B0003440B44023322461A7069E05E
:100AE0003B68DB6898470346002B63D0334B1B7889
:100AF00019467B6893F8E2301846314A0B469B0052
:100B00000B445B001344034402331B78412B11D088
:100B10002A4B1B7819467B6893F8E2301846284A1E
:100B20000B469B000B445B001344034402331B78C9
:100B3000612B11D1214B1B7819467B6893F8E23069
:100B400018461F4A0B469B000B445B0013440344AA
:100B500002332D221A702DE0184B1B7819467B6842
:100B600093F8E2301846164A0B469B000B445B0094
:100B70001344034402331B782D2B1BD00F4B1B78DF
:100B80001A467B6893F8E23019460D4813469B00DD
:100B900013445B0003440B4402331B78013BDCB27B
:100BA000074813469B0013445B0003440B44023385
:100BB00022461A7000BF0C37BD4690BDD8000020F9
:100BC0007400002080B582B000AF786039603B6867
:100BD0005B6898477B6893F8DA207B6883F8D920B4
:100BE0003B689B6998470346002B07D07B6802222D
:100BF00083F8E1207B68012283F8DA2000BF083700
:100C0000BD4680BD80B582B000AF786039603B687A
:100C10005B6898477B6893F8DA207B6883F8D92073
:100C2000786800F0ABF90346002B38D13B68DB69EC
:100C300098470346002B03D0786800F013FD2AE0A4
:100C40003B681B6998470346002B04D00121786854
:100C500000F094FA1FE03B685B6998470346002B5D
:100C600004D00021786800F089FA14E03B68DB6862
:100C700098470346002B04D00221786800F07EFAE2
:100C800009E03B681B6A98470346002B03D0032109
:100C9000786800F073FA786800F0A3F900E000BF0C
:100CA0000837BD4680BD80B582B000AF786039603E
:100CB0003B685B6898477B6893F8DA207B6883F829
:100CC000D9203B689B6998470346002B06D078687B
:100CD00000F004FA7B68012283F8DA2000BF0837AD
:100CE000BD4680BD80B584B000AF786039603B6898
:100CF0005A687B68C3F8D4203B681A687B68C3F8DD
:100D0000D020786800F03EF87B68012283F8E32069
:100D10001A4B1B7819461A4A0B469B000B445B0082
:100D2000134400221A800023FB7310E0134B1B783E
:100D30001846FA7B124903469B0003445B000B44B0
:100D4000134402332D221A70FB7B0133FB73FB7BB0
:100D5000072BEBD97B68012283F8E1207B68002216
:100D600083F8E4207B68012283F8DA207B68002284
:100D700083F8D92000BF1037BD4680BDD8000020C1
:100D80007400002080B485B000AF78600023FB734E
:100D900016E00023BB730DE0FA7BB97B786813463D
:100DA0009B0013445B0003440B4400221A70BB7B7E
:100DB0000133BB73BB7B092BEED9FB7B0133FB7388
:100DC000FB7B132BE5D900BF00BF1437BD4680BCA9
:100DD0007047000080B485B000AF78600023FB73DB
:100DE0000023BB7344E0BB7B7A6864335B0013442D
:100DF00093F901305A1CB97B7B68643113F91130C7
:100E00001846796813469B0013445B000B44034467
:100E10001B78002B08D1BB7B7A6864335B001344DA
:100E200093F90130122B20DD0123FB73154B1B7846
:100E30001946154A0B469B000B445B0013441A8865
:100E40007B6893F8E3309BB2194689000B449BB250
:100E50000C490978134498B20B4A0B469B000B448B
:100E60005B00134402461A8005E0BB7B0133BB7371
:100E7000BB7B032BB7D9FB7B18461437BD4680BC20
:100E8000704700BFD80000207400002080B485B0F7
:100E900000AF78600023FB730023BB730AE0BB7BC9
:100EA0007A68D35C002B02D00123FB7305E0BB7B87
:100EB0000133BB73BB7B092BF1D9FB7B184614377D
:100EC000BD4680BC7047000080B485B000AF294BA0
:100ED0001B78002B49D0274B1B781946264A0B4616
:100EE0009B000B445B001A443B461068516803C3E7
:100EF00012891A801F4B1B78013BFB6018E0FB68CE
:100F00005A1C1D4913469B0013445B00C8181A491C
:100F1000FA6813469B0013445B00CA180346106826
:100F200051681860596012891A81FB68013BFB60A7
:100F3000FB68002B0ADB39880F48FA6813469B00D0
:100F400013445B0003441B889942D8D8FB685A1CA1
:100F5000094913469B0013445B000B441A463B4669
:100F600003CB106051601B88138100BF1437BD464E
:100F700080BC7047D80000207400002080B584B089
:100F800000AF78607B68D3F8D0309847F8607B6812
:100F9000D3F8DC30FA68D31A7A6892F8E320114665
:100FA0006FF0310201FB02F202F2DC52934213D9DC
:100FB0007B68012283F8E0207B68FA68C3F8DC20B4
:100FC000786800F00EF80346002B03D10221786800
:100FD00000F0D4F8012300E0002318461037BD4686
:100FE00080BD80B582B000AF78607868FFF7F2FE10
:100FF0000346002B19D07B68012283F8E020786833
:1010000000F020FA786800F047FA7868FFF73EFFB2
:101010000346002B04D07B68052283F8DA2002E027
:10102000786800F007F8012300E00023184608372D
:10103000BD4680BD80B584B000AF78607B68D3F8D2
:10104000D43098470346BB81BA89224BA3FB0213D5
:10105000D11A49080B4499080B46DB005B1AD31AD6
:101060009BB2DAB27B6883F8D8207B68002283F8D1
:10107000E4200023FB7325E07B6893F8D830194601
:10108000FB7BFA7B144889000B4410F913107B6832
:10109000643203F812107B6893F8D8301A46FB7B51
:1010A000F97B0D48920013445B00034493F901005F
:1010B0007A6801F164035B00134402465A70FB7BBB
:1010C0000133FB73FB7B032BD6D900BF00BF103766
:1010D000BD4680BD25499224CC46000880B584B029
:1010E00000AF78607868FFF74DFEFFF7EDFE214B0B
:1010F0001B780133DAB21F4B1A701E4B1B78092B79
:1011000002D91C4B09221A707B68012283F8E32064
:10111000184B1B781946184A0B469B000B445B0082
:10112000134400221A800023FB7310E0114B1B783C
:101130001846FA7B104903469B0003445B000B44AE
:10114000134402332D221A70FB7B0133FB73FB7BAC
:10115000072BEBD97B68012283F8E1207B68002212
:1011600083F8E4207B68012283F8E32000BF103776
:10117000BD4680BDD80000207400002080B487B038
:1011800000AF78600B46FB700123FB75FB78032BE7
:1011900000F24B8101A252F823F000BFD7120008E1
:1011A00049120008AD110008631300080023BB7545
:1011B00026E0BB7D7A6864335B00134493F9013009
:1011C0005A1CB97D7B68643113F91130184679686F
:1011D00013469B0013445B000B4403441B78002B15
:1011E00008D1BB7D7A6864335B00134493F9013006
:1011F000132B02D10023FB7505E0BB7D0133BB75CA
:10120000BB7D032BD5D9FB7D002B00F0078100238C
:101210007B7515E07A7D796802F164035B000B440D
:1012200093F90130DBB20133DBB258B2796802F1D5
:1012300064035B000B4402465A707B7D01337B756F
:101240007B7D032BE6D9E9E000233B7524E03B7D61
:101250007A6864335B00134493F9013018463A7D91
:101260007B68643213F912305A1C796803469B007C
:1012700003445B000B4413441B78002B06D13A7DDA
:101280007B68643213F91230092B02D10023FB75FD
:1012900005E03B7D01333B753B7D032BD7D9FB7DBF
:1012A000002B00F0BD800023FB7410E0FB7C7A680B
:1012B00003F1640112F91120D2B20132D2B251B25B
:1012C0007A68643302F81310FB7C0133FB74FB7CF7
:1012D000032BEBD9A4E00023BB7424E0BB7C7A6829
:1012E00064335B00134493F901301846BA7C7B6881
:1012F000643213F912305A1E796803469B00034486
:101300005B000B4413441B78002B06D1BA7C7B682E
:10131000643213F91230002B02D10023FB7505E073
:10132000BB7C0133BB74BB7C032BD7D9FB7D002B6B
:1013300078D000237B7410E07B7C7A6803F1640131
:1013400012F91120D2B2013AD2B251B27A686433A2
:1013500002F813107B7C01337B747B7C032BEBD96D
:1013600060E000233B740023FB732BE0FB7B7A6877
:1013700064335B00134493F901305A1C3B7C1A44DC
:10138000F97B7B68643113F911301846796813468C
:101390009B0013445B000B4403441B78002B0BD1D0
:1013A000FB7B7A6864335B00134493F901305A1C69
:1013B0003B7C1344142B02D10023FB7505E0FB7B1F
:1013C0000133FB73FB7B032BD0D9FB7D002B02D0B9
:1013D0003B7C01333B74FB7D002BC4D13B7C002B59
:1013E00022D00023BB7315E0BB7B7A6864335B00BB
:1013F000134493F90130DAB23B7C1344DAB2BB7B7D
:1014000051B27A6864335B0013440A465A70BB7B5E
:101410000133BB73BB7B032BE6D905E000BF04E0BF
:1014200000BF02E000BF00E000BFFB7D002B03D047
:101430007B68012283F8E02000BF1C37BD4680BCDA
:10144000704700BF80B485B000AF78600023FB73A5
:1014500019E0FB7B7A6864335B00134493F9013035
:101460001946FA7B7B68643213F9123018467A68A1
:101470000B469B000B445B001344034401221A708B
:10148000FB7B0133FB73FB7B032BE2D900BF00BF67
:101490001437BD4680BC7047B0B48BB000AF7860E5
:1014A000002387F82730132387F826302EE097F89B
:1014B000263028333B44012203F81C2C002387F8F4
:1014C00025301AE097F8262097F8251078681346FB
:1014D0009B0013445B0003440B441B78002B07D193
:1014E00097F8263028333B44002203F81C2C08E0F0
:1014F00097F82530013387F8253097F82530092BE8
:10150000E0D997F82630013B87F8263097F8263047
:10151000002BCCD1132387F824303FE097F82430F8
:1015200028333B4413F81C3C002B05D097F8273098
:10153000013387F827302CE0002387F8233024E09C
:1015400097F82730002B1BD097F8241097F82340EA
:1015500097F8242097F827301A4497F823007D68DD
:101560000B469B000B445B002B4423441C7879689A
:1015700013469B0013445B000B44034422461A703D
:1015800097F82330013387F8233097F82330092B5D
:10159000D6D997F82430013B87F8243097F82430C7
:1015A000002BBBD12D4B1B7819462D4A0B469B00B7
:1015B0000B445B0013441A8897F827309BB21946F6
:1015C00089000B441B019BB224490978134498B24B
:1015D000234A0B469B000B445B00134402461A80CF
:1015E00097F82730002B2BD07B68012283F8E0206E
:1015F00026E0132387F822301EE0002387F82130ED
:1016000011E097F8272097F82110786813469B007F
:1016100013445B0003440B4400221A7097F82130F6
:10162000013387F8213097F82130092BE9D997F851
:101630002230013B87F8223097F82230002BDCD192
:1016400097F827305A1E87F82720002BD1D100BFEA
:1016500000BF2C37BD46B0BC704700BFD80000208B
:101660007400002080B48FB000AF786000237B63EB
:10167000012387F83330002387F8323021E097F8D0
:10168000321097F832307A68643112F911205B0019
:1016900038333B4403F82C2C97F8323097F832203B
:1016A000796864335B000B4493F9011053003833BD
:1016B0003B440A4603F82B2C97F83230013387F865
:1016C000323097F83230032BD9D97B6893F8D83071
:1016D000062B00F2378401A252F823F0451F0008C0
:1016E000F9160008B11700086F190008231B00083D
:1016F000C31C00081D1E00087B6893F8E430002B13
:1017000003D0012B29D000F01DBC002387F8313015
:101710001EE097F831307A6892F9CC205B003833BC
:101720003B4403F82C2C7B6893F9C930DAB297F864
:1017300031301344DAB297F8313052B25B003833AB
:101740003B4403F82B2C97F83130013387F83130C4
:1017500097F83130032BDCD929E0002387F83030AB
:1017600020E07B6893F9CC30DAB297F8303013443C
:10177000DBB2023BDAB297F8303052B25B0038335A
:101780003B4403F82C2C97F830307A6892F9C92042
:101790005B0038333B4403F82B2C97F8303001338F
:1017A00087F8303097F83030032BDAD900BFC9E31F
:1017B0007B6893F8E430032B00F2BF8301A252F858
:1017C00023F000BFD5170008351800089D18000841
:1017D0000519000897F90C303B7397F90F307B73AC
:1017E000012387F82F3020E097F82F307A6892F99C
:1017F000CC205B0038333B4403F82C2C7B6893F9F6
:10180000CB30DAB297F82F301344DBB2013BDAB2B7
:1018100097F82F3052B25B0038333B4403F82B2C3F
:1018200097F82F30013387F82F3097F82F30032B9C
:10183000DAD99BE097F90E30DBB20133DBB25BB251
:101840003B7397F90D307B73012387F82E3020E02E
:101850007B6893F9CA30DAB297F82E30D31ADBB22C
:101860000233DAB297F82E3052B25B0038333B4481
:1018700003F82C2C97F82E307A6892F9CD205B0073
:1018800038333B4403F82B2C97F82E30013387F87C
:101890002E3097F82E30032BDAD967E097F90C3009
:1018A0003B7397F90F30DBB20133DBB25BB27B7372
:1018B000012387F82D3020E097F82D307A6892F9CF
:1018C000CC205B0038333B4403F82C2C7B6893F925
:1018D000CB30DAB297F82D30D31ADBB20233DAB25A
:1018E00097F82D3052B25B0038333B4403F82B2C71
:1018F00097F82D30013387F82D3097F82D30032BD2
:10190000DAD933E097F90E30DBB2013BDBB25BB2E0
:101910003B7397F911307B73012387F82C3020E05B
:101920007B6893F9CA30DAB297F82C301344DBB2F3
:10193000023BDAB297F82C3052B25B0038333B44AA
:1019400003F82C2C97F82C307A6892F9CF205B00A2
:1019500038333B4403F82B2C97F82C30013387F8AD
:101960002C3097F82C30032BDAD900BFE5E27B68E6
:1019700093F8E430032B00F2E28201A252F823F044
:1019800091190008F9190008611A0008C11A000825
:1019900097F910303B7397F90D30DBB20133DBB2AE
:1019A0005BB27B73012387F82B3020E097F82B3054
:1019B0007A6892F9C8205B0038333B4403F82C2C3A
:1019C0007B6893F9C930DAB297F82B30D31ADBB2BF
:1019D0000233DAB297F82B3052B25B0038333B4413
:1019E00003F82B2C97F82B30013387F82B3097F81E
:1019F0002B30032BDAD993E097F90C30DBB2013BA3
:101A0000DBB25BB23B7397F913307B73012387F82A
:101A10002A3020E07B6893F9C830DAB297F82A3090
:101A20001344DBB2023BDAB297F82A3052B25B00C1
:101A300038333B4403F82C2C97F82A307A6892F913
:101A4000CD205B0038333B4403F82B2C97F82A3029
:101A5000013387F82A3097F82A30032BDAD95FE070
:101A600097F912303B7397F90D307B73012387F898
:101A7000293020E097F829307A6892F9CC205B0071
:101A800038333B4403F82C2C7B6893F9CB30DAB223
:101A900097F829301344DBB2023BDAB297F82930C9
:101AA00052B25B0038333B4403F82B2C97F82930B3
:101AB000013387F8293097F82930032BDAD92FE042
:101AC00097F90C303B7397F911307B73012387F83A
:101AD000283020E07B6893F9C830DAB297F82830D4
:101AE000D31ADBB20133DAB297F8283052B25B0076
:101AF00038333B4403F82C2C97F828307A6892F955
:101B0000C9205B0038333B4403F82B2C97F828306E
:101B1000013387F8283097F82830032BDAD900BF33
:101B20000DE27B6893F8E430032B00F20A8201A2F5
:101B300052F823F0451B0008A11B0008011C0008F7
:101B4000611C000897F90C30BB7497F91330FB74D3
:101B5000002387F827301EE097F827307A6892F93B
:101B6000CA205B0038333B4403F82C2C7B6893F984
:101B7000C930DAB297F827301344DAB297F8273031
:101B800052B25B0038333B4403F82B2C97F82730D4
:101B9000013387F8273097F82730022BDCD98FE004
:101BA00097F90C30BB7497F90D30FB74002387F85C
:101BB000263020E07B6893F9C830DAB297F82630F7
:101BC000D31ADBB20133DAB297F8263052B25B0097
:101BD00038333B4403F82C2C97F826307A6892F976
:101BE000CB205B0038333B4403F82B2C97F826308E
:101BF000013387F8263097F82630022BDAD95FE0D8
:101C000097F90C30BB7497F90D30FB74002387F8FB
:101C1000253020E097F825307A6892F9CA205B00D9
:101C200038333B4403F82C2C7B6893F9C930DAB283
:101C300097F82530D31ADBB20133DAB297F82530A2
:101C400052B25B0038333B4403F82B2C97F8253015
:101C5000013387F8253097F82530022BDAD92FE0A9
:101C600097F90C30BB7497F90F30FB74002387F899
:101C7000243020E07B6893F9C830DAB297F824303A
:101C80001344DBB2013BDAB297F8243052B25B0066
:101C900038333B4403F82C2C97F824307A6892F9B7
:101CA000CD205B0038333B4403F82B2C97F82430CD
:101CB000013387F8243097F82430022BDAD900BF9B
:101CC0003FE17B6893F8E430002B02D0012B51D028
:101CD00038E1002387F823301EE097F823307A6834
:101CE00092F9CA205B0038333B4403F82C2C7B6804
:101CF00093F9C930DAB297F823301344DAB297F87F
:101D0000233052B25B0038333B4403F82B2C97F856
:101D10002330013387F8233097F82330012BDCD9A7
:101D2000022387F8223020E097F822307A6892F96F
:101D3000C8205B0038333B4403F82C2C7B6893F9B4
:101D4000CD30DAB297F822301344DBB2023BDAB27C
:101D500097F8223052B25B0038333B4403F82B2C07
:101D600097F82230013387F8223097F82230032B7E
:101D7000DAD952E0002387F8213020E07B6893F91C
:101D8000C830DAB297F821301344DBB2013BDAB243
:101D900097F8213052B25B0038333B4403F82C2CC7
:101DA00097F821307A6892F9C9205B0038333B44B8
:101DB00003F82B2C97F82130013387F8213097F85E
:101DC0002130012BDAD9022387F8203020E07B680C
:101DD00093F9C830DAB297F820301344DBB2023BF3
:101DE000DAB297F8203052B25B0038333B4403F844
:101DF0002C2C97F820307A6892F9CB205B0038338E
:101E00003B4403F82B2C97F82030013387F820301F
:101E100097F82030032BDAD900BF93E07B6893F862
:101E2000E430002B02D0012B43D08BE00023FB7762
:101E300019E0FB7F7A6892F9C8205B0038333B4495
:101E400003F82C2C7B6893F9CD30DAB2FB7F134476
:101E5000DAB2FB7F52B25B0038333B4403F82B2CE1
:101E6000FB7F0133FB77FB7F012BE2D90223BB779A
:101E70001BE0BB7F7A6892F9CA205B0038333B4491
:101E800003F82C2C7B6893F9C930DAB2BB7F13447A
:101E9000DBB2023BDAB2BB7F52B25B0038333B4469
:101EA00003F82B2CBB7F0133BB77BB7F032BE0D91F
:101EB00042E000237B7719E07B6893F9C830DAB2FF
:101EC0007B7F1344DAB27B7F52B25B0038333B44F2
:101ED00003F82C2C7B7F7A6892F9CB205B00383397
:101EE0003B4403F82B2C7B7F01337B777B7F012BDB
:101EF000E2D902233B771BE07B6893F9C830DAB262
:101F00003B7F1344DBB2013BDAB23B7F52B25B0052
:101F100038333B4403F82C2C3B7F7A6892F9C92074
:101F20005B0038333B4403F82B2C3B7F01333B777A
:101F30003B7F032BE0D900BF04E000BF02E000BFFD
:101F400000E000BF0023FB7616E0FB7E5B00383329
:101F50003B4413F92C3C002B07DBFB7E5B00383342
:101F60003B4413F92C3C092B03DD002387F8333065
:101F700005E0FB7E0133FB76FB7E032BE5D997F86A
:101F80003330002B3CD10023BB7636E0BB7E5B00B8
:101F900038333B4413F92C3C002B11DABB7E5B0039
:101FA00038333B4413F92C3C1A467B6B934221DDBA
:101FB000BB7E5B0038333B4413F92C3C7B6319E058
:101FC000BB7E5B0038333B4413F92C3C092B11DDFD
:101FD000BB7E5B0038333B4413F92C3C093B7A6BE6
:101FE0009A4207DABB7E5B0038333B4413F92C3C42
:101FF000093B7B63BB7E0133BB76BB7E032BC5D91C
:102000007B6B002B1AD000237B7614E07B7E5B0079
:1020100038333B4413F92C3CDAB27B6BDBB2D31A76
:10202000DAB27B7E52B25B0038333B4403F82C2C8F
:102030007B7E01337B767B7E032BE7D9012387F8F8
:10204000333000233B761DE03B7E5B0038333B445E
:1020500013F92B3C19463B7E5B0038333B4413F9A4
:102060002C3C18467A680B469B000B445B001344DB
:1020700003441B78002B02D0002387F833303B7ECB
:1020800001333B763B7E032BDED997F83330002BB0
:1020900059D07B68012283F8E0200023FB751BE008
:1020A000FB7DFA7D5B0038333B4413F92C1C7B68C5
:1020B000643203F81210FB7DF97D5B0038333B443A
:1020C00013F92B0C7A6801F164035B001344024698
:1020D0005A70FB7D0133FB75FB7D032BE0D97B68D8
:1020E00093F8E4300133DAB27B6883F8E4207B684C
:1020F00093F8D830062B26D801A252F823F000BF5F
:10210000452100081D210008312100083121000867
:10211000312100081D2100081D2100087B6893F86B
:10212000E43003F00103DAB27B6883F8E4200AE0CC
:102130007B6893F8E43003F00303DAB27B6883F83A
:10214000E42000E000BF00BF3C37BD4680BC7047C4
:1021500080B483B000AF0023FB711FE0144B1B78E9
:102160001846FA79134903469B0003445B000B446D
:10217000134402331B782D2B0DD10D4B1B781846C1
:10218000FA790C4903469B0003445B000B4413445B
:10219000023320221A70FB790133FB71FB79072B84
:1021A000DCD900BF00BF0C37BD4680BC704700BF04
:1021B000D80000207400002080B582B000AF7860A5
:1021C0007B681B68984700BF0837BD4680BD00008C
:1021D00080B582B000AF786039607B6893F8DA3000
:1021E000013B042B25D801A252F823F0012200085C
:1021F0000B220008152200081F22000829220008CF
:102200003968786800F01AF814E03968786800F0E6
:102210002DF80FE03968786800F03DF80AE0396879
:10222000786800F051F805E03968786800F065F8E2
:1022300000E000BF00BF0837BD4680BD80B582B05A
:1022400000AF786039607B6893F8DA207B6893F898
:10225000D9309A4202D03B685B6898473B689B68DC
:102260007868984700BF0837BD4680BD80B582B00A
:1022700000AF786039607B6893F8DA207B6893F868
:10228000D9309A4203D03B68DB687868984700BF32
:102290000837BD4680BD80B582B000AF7860396038
:1022A0007B6893F8DA207B6893F8D9309A4203D0A0
:1022B0003B681B69786898473B685B697868984712
:1022C00000BF0837BD4680BD80B582B000AF7860E2
:1022D00039607B6893F8DA207B6893F8D9309A42AA
:1022E00003D03B689B69786898473B68DB697868EE
:1022F000984700BF0837BD4680BD80B582B000AFAB
:10230000786039607B6893F8DA207B6893F8D9307D
:102310009A4203D03B681B6A7868984700BF083729
:10232000BD4680BD80B500AF00F09AFE002000F0F1
:10233000FBFE00BF80BD000080B586B004AF134A2D
:102340003B4692E8030018600433198002330A0CFC
:102350001A70002000F0E8FE3A460623029300239C
:1023600001931F230093032332210A2001F046F832
:10237000022301931F2300939F237F22002100202B
:1023800001F036F900BF0837BD4680BD4C46000855
:1023900080B58CB004AF7860294A07F1180392E841
:1023A0000300186004331970264A07F10C0307CAAA
:1023B00003C31A807B6893F8E130012B1BD107F12E
:1023C000180206230293002301934AF6BC6300938C
:1023D00001235A21342001F011F807F10C020623E1
:1023E0000293002301931F230093012366212420DD
:1023F00001F004F81FE07B6893F8E130022B1AD15A
:1024000007F1180204230293002301931F23009372
:1024100001235A21342000F0F1FF07F10C020923B7
:102420000293002301934AF6BC63009301236621C3
:10243000242000F0E3FF00BF2037BD4680BD00BF71
:10244000544600085C46000880B58AB004AF786046
:10245000444A07F1080307CA83E80700002000F098
:1024600063FE022300931F2380221421002001F029
:102470003DF807F108020C230293002301931F2368
:10248000009301230A211F2000F0B8FF364B1B7870
:10249000BB75354B1B78013BDBB2FB7558E097F9F8
:1024A00017309BB21A46920013445B009BB21E3356
:1024B00099B297F9173001331A4602230293002389
:1024C00001931F23009301230A2000F0EBFF97F9EB
:1024D00017309BB21A46920013445B009BB21E3326
:1024E00099B297F9172013469B0013445B001F4ACB
:1024F00013449A1C08230293002301931F23009383
:1025000001231E2000F07AFF97F917309BB21A467C
:10251000920013445B009BB21E3399B297F91720C7
:10252000124813469B0013445B0003441B881A4661
:1025300005230293002301931F23009301235A20B4
:1025400000F0B0FF97F91730DBB2013BDBB2FB754F
:1025500097F91730002BA2DA00BF00BF1837BD462D
:1025600080BD00BF68460008D8000020740000202D
:1025700090B58BB004AF7860114B07F108040FCB16
:1025800007C42380002000F0CFFD07F108020D23CF
:102590000293002301931F230093012332211F2064
:1025A00000F02CFF022301931F230093A02380221D
:1025B0000021002001F01CF800BF1C37BD4690BD73
:1025C0007446000890B587B002AF78600023FB73B3
:1025D00046E07B6893F8E230FA7B9A421FD1FB7B9E
:1025E0009BB21A46520013445B009BB2283398B248
:1025F0001F4B1B781C46FA7B1E4923469B00234435
:102600005B000B44134402331A78002301934AF60B
:10261000BC63009301233C2100F068FE1DE0FB7BBE
:102620009BB21A46520013445B009BB2283398B207
:102630000F4B1B781C46FA7B0E4923469B00234414
:102640005B000B44134402331A78002301931F23C9
:10265000009301233C2100F049FEFB7B0133FB7317
:10266000FB7B072BB5D900BF00BF1437BD4690BD1B
:10267000D80000207400002080B590B004AF7860CE
:10268000494A07F1280392E80300186004331980CF
:10269000464A07F1200392E80300186004331980CA
:1026A000434A07F1140307CA03C31A70414A07F1EA
:1026B0000C0392E8030018600433198002330A0CFB
:1026C0001A70002000F030FD07F10C02062302937F
:1026D000002301931F230093032305210A2000F008
:1026E0008DFE012301931F2300937B233E2224218F
:1026F000012000F07DFF012301931F2300937B2322
:1027000037222421452000F073FF2B4B1B781A46FB
:1027100013469B0013445B00284A13449A1C082369
:102720000293002301931F23009301232E214920AC
:1027300000F064FE07F128020523029300230193B1
:102740001F23009301234221492000F057FE07F187
:10275000200205230293002301931F2300930123EA
:102760006021492000F04AFE07F114020823029379
:10277000002301931F23009301237E21492000F0B1
:102780003DFE0E4B1B881A4605230293002301933E
:102790001F23009301238821492000F083FE00BFFE
:1027A0003037BD4680BD00BF844600088C46000817
:1027B00094460008A0460008D800002074000020BD
:1027C00080B588B004AF7860554B1B781946554AE0
:1027D0000B469B000B445B0013441B881A460623E0
:1027E0000293002301931F23009301234C214920CE
:1027F00000F058FE7B6893F8E3301A4603230293F7
:10280000002301931F23009301236A21492000F034
:1028100049FE7B6893F8E030002B7DD00023FB73EA
:1028200048E00023BB733FE0FA7BB97B786813462E
:102830009B0013445B0003440B441B78002B18D00F
:10284000BB7B9BB21A46520013445B009BB203331E
:1028500098B2FB7B9BB21A46520013445B009BB2BA
:10286000263399B21F2300930523052200F07AFC3A
:1028700017E0BB7B9BB21A46520013445B009BB22D
:10288000033398B2FB7B9BB21A46520013445B00A1
:102890009BB2263399B2002300930523052200F052
:1028A00061FCBB7B0133BB73BB7B092BBCD9FB7BBE
:1028B0000133FB73FB7B132BB3D900237B7324E021
:1028C0007A7B7B68643213F912309BB21A4652004D
:1028D00013445B009BB2033398B27B7B7A6864330A
:1028E0005B00134493F901309BB21A465200134423
:1028F0005B009BB2263399B21F2300930523052268
:1029000000F030FC7B7B01337B737B7B032BD7D9BF
:102910007B68002283F8E02000BF1037BD4680BDF1
:10292000D80000207400002090B58FB004AF78600C
:10293000234A07F11C0307CA03C31A80214B07F17E
:102940000C040FCB07C4237000230093A023802224
:102950000021002000F006FC07F11C02092302936D
:10296000002301931F230093022340210A2000F03B
:1029700045FD07F10C020C230293002301931F2352
:10298000009301235A21102000F038FD0E4B1B78D4
:1029900019460E4A0B469B000B445B0013441B88F0
:1029A0001A4605230293002301931F23009301235A
:1029B0005A21542000F076FD00BF2C37BD4690BD53
:1029C000A8460008B4460008D80000207400002083
:1029D00080B5BCB000AF01F0F5FB01F003FD0120B4
:1029E00001F0CCF90F4A3B4692E8030083E803006C
:1029F0003A4607F1080311461846FEF773F90A48EC
:102A0000FDF7D5FE0948FFF7D7FB07F10803074993
:102A10001846FFF7DDFB07F1080303491846FDF7E9
:102A2000D1FEF2E7C4460008000000202400002088
:102A300080B500AF002001F09BFA0346184680BD28
:102A400080B582B000AF03463960FB71FA793B680C
:102A500018787D4913469B0013449B000B440246A3
:102A60001A70FA793B685878774913469B001344EB
:102A70009B000B44013302461A70FA793B68987840
:102A8000714913469B0013449B000B4402330246DA
:102A90001A70FA793B68D8786B4913469B00134447
:102AA0009B000B44033302461A70FA793B6818798D
:102AB000654913469B0013449B000B4404330246B4
:102AC0001A70FA793B6899685F4813469B00134473
:102AD0009B00034408331960FA795B4913469B0055
:102AE00013449B000B4401331B78DBB2022B10D044
:102AF000022B13DC002B02D0012B05D00EE00221AB
:102B0000022001F087FB0AE00321022001F082FB92
:102B100005E00421022001F07DFB00E000BFFA790E
:102B2000494913469B0013449B000B4402331B7816
:102B3000DBB2002B02D0012B3CD077E0FA7942497E
:102B400013469B0013449B000B4403331B78DBB2FA
:102B5000002B17D1FA793C4913469B0013449B0084
:102B60000B4401331B78D8B2FA79374913469B00DE
:102B700013449B000B441B78DBB20C22194600F077
:102B8000E9FD53E0FA79304913469B0013449B005A
:102B90000B4401331B78D8B2FA792B4913469B00BA
:102BA00013449B000B441B78DBB20422194600F04F
:102BB000D1FD3BE0FA79244913469B0013449B0066
:102BC0000B4403331B78DBB2002B17D1FA791E4973
:102BD00013469B0013449B000B4401331B78D8B26F
:102BE000FA79194913469B0013449B000B441B7848
:102BF000DBB20822194600F0ADFD16E0FA79124961
:102C000013469B0013449B000B4401331B78D8B23E
:102C1000FA790D4913469B0013449B000B441B7823
:102C2000DBB20422194600F095FD00BFFA7906498F
:102C300013469B0013449B000B440C3300221A7074
:102C400000BF0837BD4680BDDC00002080B582B0E3
:102C500000AF0023FB71B1E101F0B6F93860FA79F9
:102C6000B84913469B0013449B000B440C331B785C
:102C7000DBB2042B00F39881032B80F23281002B0E
:102C800007D0002BC0F29081013B012B00F28C8118
:102C900076E0FA79AB4913469B0013449B000B4442
:102CA00002331B78DBB2012B2ED1FA79A5491346EA
:102CB0009B0013449B000B4401331B78D8B2FA7974
:102CC000A04913469B0013449B000B441B78DBB2C6
:102CD000194600F01FFF0346012B40F06781FA7987
:102CE000984913469B0013449B000B440C3301226C
:102CF0001A70FA79934913469B0013449B000B44C6
:102D000010333A681A6051E1FA798E4913469B00F4
:102D100013449B000B4402331B78DBB2002B40F0C2
:102D20004581FA79874913469B0013449B000B4465
:102D300001331B78D8B2FA79824913469B001344B9
:102D40009B000B441B78DBB2194600F0E3FE034600
:102D5000002B40F02B81FA797A4913469B001344EB
:102D60009B000B440C3301221A70FA797549134603
:102D70009B0013449B000B4410333A681A6015E122
:102D8000FA79704913469B0013449B000B440233AD
:102D90001B78DBB2012B4BD1FA796A4913469B00B1
:102DA00013449B000B4401331B78D8B2FA79654970
:102DB00013469B0013449B000B441B78DBB219465F
:102DC00000F0A8FE0346002B17D1FA795D4913469F
:102DD0009B0013449B000B4410331B683A68D31AC2
:102DE0000F2B0AD9FA79574913469B0013449B00CD
:102DF0000B440C3300221A7072E0FA7951491346E1
:102E00009B0013449B000B4410331B683A68D31A91
:102E100040F2E242934240F2CB80FA7949491346AC
:102E20009B0013449B000B440C3303221A70BFE039
:102E3000FA79444913469B0013449B000B44023328
:102E40001B78DBB2002B40F0B380FA793D49134682
:102E50009B0013449B000B4401331B78D8B2FA79D2
:102E6000384913469B0013449B000B441B78DBB28C
:102E7000194600F04FFE0346012B17D1FA7931496C
:102E800013469B0013449B000B4410331B683A68A5
:102E9000D31A0F2B0AD9FA792A4913469B001344F7
:102EA0009B000B440C3300221A7019E0FA79254973
:102EB00013469B0013449B000B4410331B683A6875
:102EC000D31A40F2E242934272D9FA791D4913466D
:102ED0009B0013449B000B440C3303221A7067E0E1
:102EE00066E0FA79174913469B0013449B000B4494
:102EF00002331B78DBB2012B26D1FA791149134634
:102F00009B0013449B000B4401331B78D8B2FA7921
:102F10000C4913469B0013449B000B441B78DBB207
:102F2000194600F0F7FD0346002B43D1FA79054915
:102F300013469B0013449B000B440C3300221A7071
:102F400038E000BFDC000020FA79214913469B00DD
:102F500013449B000B4402331B78DBB2002B29D1B6
:102F6000FA791B4913469B0013449B000B44013321
:102F70001B78D8B2FA79164913469B0013449B007C
:102F80000B441B78DBB2194600F0C4FD0346012B4D
:102F900010D1FA790E4913469B0013449B000B4451
:102FA0000C3300221A7005E000BF04E000BF02E00D
:102FB00000BF00E000BFFB790133FB71FB79042BFC
:102FC0007FF64AAE00BF00BF0837BD4680BD00BFD8
:102FD000DC00002080B483B000AF0346FB71FA79B7
:102FE0001E4913469B0013449B000B440C331B7873
:102FF000DBB2012B0BD1FA79184913469B0013441D
:103000009B000B440C3302221A70012321E0FA7951
:10301000124913469B0013449B000B440C331B784E
:10302000DBB2032B0BD1FA790C4913469B001344F6
:103030009B000B440C3304221A70032309E0FA7935
:10304000064913469B0013449B000B440C331B782A
:10305000DBB218460C37BD4680BC7047DC00002050
:1030600080B500AF0221022001F0D4F80221022035
:1030700001F0D0F802220221002000F06BFB0222B6
:103080000321002000F066FB0221022001F0C2F8BB
:103090000C21022001F0BEF809220521002000F0D9
:1030A00059FB09220721002000F054FB232001F0E6
:1030B00067F801F0F1F801220321002000F0B0FCD4
:1030C000642001F0AFF900220321002000F0A8FCE9
:1030D000052001F0A7F901220321002000F0A0FC47
:1030E000642001F09FF900220321002000F098FCE9
:1030F000642001F097F901220321002000F090FCE8
:10310000782001F0D3F9112000F064F8962001F046
:10311000CDF93A2000F05EF8052000F070F8292083
:1031200000F058F800BF80BD80B584B000AF034602
:10313000FB809F237F220021002000F08AF80023DB
:10314000FB6006E0FB88184600F06EF8FB68013370
:10315000FB60FB68B3F5A04FF4D300BF00BF10378E
:10316000BD4680BD90B585B000AF04460846114607
:103170001A462346FB800346BB800B467B801346E2
:103180003B807B883A8802FB03F3BB60FA887B882C
:1031900013449BB2013B9CB2BA883B8813449BB258
:1031A000013B9BB2B988F888224600F052F8002310
:1031B000FB6006E03B8C184600F036F8FB680133F4
:1031C000FB60FA68BB689A42F4D300BF00BF1437B3
:1031D000BD4690BD80B584B000AF0346FB710022B0
:1031E0000221002000F01CFC07F10F02FB791146C0
:1031F000184601F079F800BF1037BD4680BD80B594
:1032000084B000AF0346FB7101220221002000F0D0
:1032100007FC07F10F02FB791146184601F064F82C
:1032200000BF1037BD4680BD80B582B000AF0346F9
:10323000FB80FB881B0A9BB2DBB21846FFF7DFFF5F
:10324000FB88DBB21846FFF7DAFF00BF0837BD4640
:1032500080BD90B583B000AF0446084611461A46BB
:103260002346FB800346BB800B467B8013463B8096
:103270002A20FFF7AFFFFB881B0A9BB2DBB2184680
:10328000FFF7BDFFFB88DBB21846FFF7B8FF7B886E
:103290001B0A9BB2DBB21846FFF7B1FF7B88DBB29B
:1032A0001846FFF7ACFF2B20FFF794FFBB881B0AE3
:1032B0009BB2DBB21846FFF7A2FFBB88DBB2184611
:1032C000FFF79DFF3B881B0A9BB2DBB21846FFF756
:1032D00096FF3B88DBB21846FFF791FF2C20FFF7E3
:1032E00079FF00BF0C37BD4690BD000090B585B09A
:1032F00000AF0446084611461A462346FB800346A3
:10330000BB800B46FB701346BB70FB78203BBB7247
:10331000BB789BB21A46520013445B009AB2FB88FA
:1033200013449BB2013B9CB2BB789BB2DB009AB2C8
:10333000BB8813449BB2013B9BB2B988F8882246F4
:10334000FFF787FF0023FB734DE00023BB7340E0D2
:1033500000237B7336E0BA7A97F90D10264813469E
:103360005B0013445B0003440B441B781A4697F937
:103370000F3042FA03F303F00103002B0ED00023B9
:103380003B7306E03B8C1846FFF74EFF3B7B013357
:103390003B733A7BBB789A42F4D30DE00023FB7277
:1033A00006E0BB8C1846FFF73FFFFB7A0133FB7248
:1033B000FA7ABB789A42F4D397F90D30DBB2013335
:1033C000DBB27B7397F90D30052BC4DDBB7B01337A
:1033D000BB73BA7BBB789A42BAD397F90F30DBB292
:1033E0000133DBB2FB7397F90F30072BADDD00BF64
:1033F00000BF1437BD4690BD0447000890B589B0A2
:1034000002AFBA601A460346FB810B46BB811346E6
:10341000FB710023FB821AE0FB8ABA6813441A7816
:10342000FC79B989F889BB8D01933B8D00932346C4
:10343000FFF75CFFFB799BB21A46520013445B0016
:103440009AB2FB891344FB81FB8A0133FB82FC8A1D
:10345000B868FCF78DFE03469C42DDD317E0FA798D
:10346000B989F889BB8D01933B8D009313462022C7
:10347000FFF73CFFFB799BB21A46520013445B00F6
:103480009AB2FB891344FB81FB8A0133FB8297F8D4
:1034900030309BB2FA8A9A42E1D300BF00BF1C379A
:1034A000BD4690BD90B58DB004AFBA601A460346D4
:1034B000FB810B46BB811346FB7107F114031946D0
:1034C000B86800F0D7F8FC7907F11402B989F889D7
:1034D00097F838300293BB8E01933B8E00932346BE
:1034E000FFF78CFF00BF2437BD4690BD90B585B077
:1034F00000AF0446084611461A462346FB800346A1
:10350000BB800B46FB7013463B800023FB7324E01B
:10351000FB7B9AB2BB88134499B2FB789AB2FB88C2
:1035200013449CB2FB7B9AB2BB8813449BB2F888CD
:103530002246FFF78EFE0023BB8106E03B8818463B
:10354000FFF772FEBB890133BB81FB789BB2BA895E
:103550009A42F3D3FB7B0133FB73FA7B97F820305D
:103560009A42D5D300BF00BF1437BD4690BD90B579
:1035700085B000AF0446084611461A462346FB8034
:103580000346BB800B46FB7013463B800023FB7356
:1035900024E0FB7B9AB2FB88134498B2FB7B9AB27F
:1035A000FB8813449CB2FB789AB2BB8813449BB24D
:1035B000B9882246FFF74DFE0023BB8106E03B8819
:1035C0001846FFF731FEBB890133BB81FB789BB204
:1035D000BA899A42F3D3FB7B0133FB73FA7B97F8EA
:1035E00020309A42D5D300BF00BF1437BD4690BDEE
:1035F00090B585B002AF0446084611461A462346E8
:10360000FB800346BB800B467B8013463B803B8898
:10361000DAB23C8BB988F8883B7F00932346FFF7EA
:10362000A6FFBA883B88134499B27B88DAB23C8BF8
:10363000F8883B7F00932346FFF758FFFA887B8882
:10364000134498B23B88DAB23C8BB9883B7F009335
:103650002346FFF78CFF7B88DAB23C8BB988F88869
:103660003B7F00932346FFF741FF00BF0C37BD4669
:1036700090BD000080B584B000AF78603960002351
:10368000FB7319E07968194BA3FB0123DA08134691
:103690009B0013445B00CA1AD2B2FB7B39680B440F
:1036A0003032D2B21A707B68104AA2FB0323DB08C7
:1036B0007B60FB7B0133FB737B68002BE2D1FB7BE0
:1036C0003A68134400221A70386800F011F83B6819
:1036D0001B78002B06D13B6830221A703B680133FF
:1036E00000221A7000BF1037BD4680BDCDCCCCCCB7
:1036F00080B584B000AF78607B681B78002B25D044
:103700000023FB737868FCF733FD0346DBB2013B13
:10371000BB7317E0FB7B7A6813441B787B73BB7B1E
:103720007A681A44FB7B79680B4412781A70BB7B69
:103730007A6813447A7B1A70FB7B0133FB73BB7B83
:10374000013BBB73FA7BBB7B9A42E3D300BF1037CC
:10375000BD4680BD80B483B000AF0346FB710B460D
:10376000BB7113467B71FB79022B00F0D480022BD6
:1037700000F33A81002B02D0012B66D034E17B7933
:10378000082B0DD19E4B1B68BA79012101FA02F278
:10379000D24311469A4A0B40136008237B711AE00A
:1037A0007B790C2B0CD1964B1B68BA79012101FA5D
:1037B00002F21146924A0B43136008237B710AE020
:1037C0008F4B1B68BA79012101FA02F2D2431146EC
:1037D0008B4A0B401360BB79072B17D8894B1B68AA
:1037E000BA7992000F2101FA02F2D2431146854ABA
:1037F0000B401360834B1B687979BA79920001FA08
:1038000002F211467F4A0B431360EFE0BB790F2BA6
:1038100000F2EC80BB79083BBB717B4B1B68BA792B
:1038200092000F2101FA02F2D2431146764A0B4070
:103830001360754B1B687979BA79920001FA02F22C
:103840001146714A0B431360D0E07B79082B0DD1F0
:103850006E4B1B68BA79012101FA02F2D24311467C
:103860006A4A0B40136008237B711AE07B790C2BAA
:103870000CD1664B1B68BA79012101FA02F211469C
:10388000624A0B43136008237B710AE05C4B1B68A0
:10389000BA79012101FA02F2D2431146584A0B408B
:1038A0001360BB79072B17D8594B1B68BA79920064
:1038B0000F2101FA02F2D2431146554A0B40136020
:1038C000534B1B687979BA79920001FA02F21146DA
:1038D0004F4A0B4313608BE0BB790F2B00F28880BB
:1038E000BB79083BBB714B4B1B68BA7992000F2127
:1038F00001FA02F2D2431146464A0B401360454B8F
:103900001B687979BA79920001FA02F21146414AAC
:103910000B4313606CE07B79082B0DD13E4B1B6889
:10392000BA79012101FA02F2D24311463A4A0B4018
:10393000136008237B711AE07B790C2B0CD1364B7A
:103940001B68BA79012101FA02F21146324A0B438F
:10395000136008237B710AE0294B1B68BA790121A7
:1039600001FA02F2D2431146254A0B401360BB799B
:10397000072B1BD84FF488131B68BA7992000F21CC
:1039800001FA02F2D24311464FF488120B40136041
:103990004FF488131B687979BA79920001FA02F220
:1039A00011464FF488120B43136023E0BB790F2BB1
:1039B00020D8BB79083BBB71184B1B68BA799200C1
:1039C0000F2101FA02F2D2431146144A0B40136050
:1039D000124B1B687979BA79920001FA02F211460A
:1039E0000E4A0B43136005E000BF04E000BF02E095
:1039F00000BF00E000BF00BF0C37BD4680BC704771
:103A00000C08014000080140040801400C0C014072
:103A1000000C0140040C01400C00110004001100D6
:103A200080B483B000AF0346FB710B46BB711346F5
:103A30007B71FB79022B40D0022B60DC002B02D083
:103A4000012B1DD05BE07B79012B0AD12E4B1B682B
:103A5000BA79012101FA02F211462B4A0B43136095
:103A600048E07B79002B45D1274B1B68BA790121AF
:103A700001FA02F2D2431146234A0B40136039E0A7
:103A80007B79012B0AD1214B1B68BA79012101FAFC
:103A900002F211461D4A0B4313602DE07B79002B87
:103AA0002AD11A4B1B68BA79012101FA02F2D243DA
:103AB0001146164A0B4013601EE07B79012B0AD198
:103AC000134B1B68BA79012101FA02F21146104A20
:103AD0000B43136012E07B79002B0FD10C4B1B685A
:103AE000BA79012101FA02F2D2431146084A0B4089
:103AF000136003E000BF02E000BF00E000BF00BFB2
:103B00000C37BD4680BC70470C0801400C0C0140CE
:103B10000C00110080B485B000AF03460A46FB716B
:103B20001346BB710023FB73FB79022B1ED0022BC3
:103B300028DC002B02D0012B0CD023E0144B1B6897
:103B4000BA79012101FA02F21A40BB7922FA03F391
:103B5000FB7317E00F4B1B68BA79012101FA02F2DF
:103B60001A40BB7922FA03F3FB730BE00A4B1B6884
:103B7000BA79012101FA02F21A40BB7922FA03F361
:103B8000FB7300BFFB7B18461437BD4680BC7047F3
:103B900008080140080C01400800110080B500AF82
:103BA000054B1B689847054B5B69044A43F00103CA
:103BB000536100BF80BD00BF4001002000040140F0
:103BC00080B500AF054B5B689847054B5B69044ABD
:103BD00043F00203536100BF80BD00BF40010020DD
:103BE0000004014080B500AF054B9B689847054B2A
:103BF0005B69044A43F00403536100BF80BD00BF0A
:103C0000400100200004014080B500AF054BDB6897
:103C10009847054B5B69044A43F00803536100BFB2
:103C200080BD00BF400100200004014080B500AF0E
:103C3000054B1B699847054B5B69044A43F0100329
:103C4000536100BF80BD00BF40010020000401405F
:103C500080B582B000AF03463960FB71FB79464AFC
:103C600052F823301A68FB79434951F8233022F087
:103C700001021A603B68DB78012B0CD1FB793E4ACC
:103C800052F823301A68FB793B4951F8233042F04F
:103C900080021A600BE0FB79374A52F823301A6829
:103CA000FB79354951F8233022F080021A60FB7904
:103CB000184600F0A1F93B689B78002B18D1FB79DE
:103CC0002D4A52F823301A68FB792B4951F82330DA
:103CD00022F010021A60FB79274A52F823301A6842
:103CE000FB79254951F8233022F060021A601BE06D
:103CF0003B689B78012B17D1FB791F4A52F8233080
:103D00001A68FB791C4951F8233042F010021A60FE
:103D1000FB79194A52F823301A68FB79164951F891
:103D2000233022F060021A60FB79134A52F82330E4
:103D30001A68FB79104951F8233042F004021A60E6
:103D4000FB790D4A52F823301A68FB790A4951F879
:103D5000233022F002021A60FB79074A52F823301E
:103D60001A68FB79044951F8233042F001021A60C5
:103D700000BF0837BD4680BD4800002080B584B034
:103D800000AF0346FB800021012000F043FA1C2015
:103D900000F0F6F90723BB810023BB730023FB73FC
:103DA00007F10C0319460020FFF752FFFB88402B58
:103DB0000DD8FB881A465201D21A92001344DB0038
:103DC0009BB2084A1946002000F00EF805E0FB8877
:103DD000044A1946002000F061F800BF1037BD46C4
:103DE00080BD00BFDD3F000880B483B000AF034654
:103DF0003A60FB710B46BB80FB79244A52F82330B2
:103E00001A68FB79214951F8233022F001021A6027
:103E1000FB791E4A52F823301A69FB791B4951F885
:103E2000233022F001021A61FB79194A002142F87D
:103E30002310FB7917493A6841F82320FB79134A8C
:103E400052F82330BA88DA62FB79134A0121D1543F
:103E5000FB790E4A52F823301A68FB790B4951F866
:103E6000233042F001021A60FB79084A52F82330ED
:103E7000DA68FB79054951F8233042F00102DA6033
:103E800000BF0C37BD4680BC704700BF4800002013
:103E900090010020800100208C01002080B483B0BC
:103EA00000AF03463A60FB710B46BB80FB792B4A9F
:103EB00052F823301A68FB79284951F8233022F050
:103EC00001021A60FB79254A52F823301A69FB79FE
:103ED000224951F8233022F001021A61BB88002BDD
:103EE0000ED0BB885A1EFB7911461D4A42F823109A
:103EF000FA79FB791A4951F822201A4941F823200E
:103F0000FB7919493A6841F82320FB79134A52F8A2
:103F100023304FF47A72DA62FB79144A0121D154CA
:103F2000FB790E4A52F823301A68FB790B4951F895
:103F3000233042F001021A60FB79084A52F823301C
:103F4000DA68FB79054951F8233042F00102DA6062
:103F500000BF0C37BD4680BC704700BF4800002042
:103F60009C01002090010020800100208C01002095
:103F700080B485B000AF0346FB71FB79114A52F85B
:103F800023301B681B0903F00103012B06D1FB79C9
:103F90000C4A52F823305B6AFB810DE0FB79094A39
:103FA00052F82330DB6A9AB2FB79064951F8233084
:103FB0005B6A9BB2D31AFB81FB8918461437BD4656
:103FC00080BC70474800002080B400AF024B1B68E3
:103FD0001846BD4680BC7047A801002080B400AFE1
:103FE000044B1B680133034A136000BFBD4680BC0D
:103FF000704700BFA801002080B485B000AF034621
:10400000FB710023FB810723FB81FB79044A52F8F3
:104010002330FA899A6200BF1437BD4680BC7047CE
:104020004800002080B500AF164B1B681A69154B7D
:104030001B6822F001021A61134B1B68002B19D177
:10404000124B1B68002B02D0104B1B689847104B7B
:104050001B78DBB2002B08D10A4B1B681A68094B8E
:104060001B6822F001021A6009E00A4B1B68064A2D
:10407000136004E0044B1B68013B034A136000BF5C
:1040800080BD00BF4800002090010020800100207A
:104090008C0100209C01002080B500AF164B5B68AE
:1040A0001A69154B5B6822F001021A61134B5B68B9
:1040B000002B19D1124B5B68002B02D0104B5B68B0
:1040C0009847104B5B78DBB2002B08D10A4B5B683A
:1040D0001A68094B5B6822F001021A6009E00A4B7A
:1040E0005B68064A536004E0044B5B68013B034A8B
:1040F000536000BF80BD00BF480000209001002039
:10410000800100208C0100209C01002080B500AFC0
:10411000164B9B681A69154B9B6822F001021A61C5
:10412000134B9B68002B19D1124B9B68002B02D0BC
:10413000104B9B689847104B9B78DBB2002B08D143
:104140000A4B9B681A68094B9B6822F001021A60AF
:1041500009E00A4B9B68064A936004E0044B9B68A5
:10416000013B034A936000BF80BD00BF48000020B0
:1041700090010020800100208C0100209C01002083
:1041800080B483B000AF0346FB71FB791F2B05D8C9
:10419000FB7901229A40094B1A600AE0FB793F2B18
:1041A00007D8FB79203BFB71FB7901229A40044B35
:1041B0001A6000BF0C37BD4680BC704700E100E0CC
:1041C00004E100E080B400AF104B81221A60104B74
:1041D00000221A600E4B1B680D4A23F0F003136097
:1041E0000B4B1B680A4A23F4E0631360084B1B68FF
:1041F000074A23F460531360054B1B68044A23F4F9
:104200004043136000BFBD4680BC704700100240B1
:104210000410024080B483B000AF03460A46FB712D
:104220001346BB71BB791F2B2BD8FB79022B1CD0FB
:10423000022B25DC002B02D0012B0BD020E0134BEE
:104240001B68BA79012101FA02F211460F4A0B43A9
:10425000136016E00E4B1B68BA79012101FA02F2D5
:1042600011460B4A0B4313600BE00A4B1B68BA79EB
:10427000012101FA02F21146064A0B43136000E0E5
:1042800000BF00BF0C37BD4680BC70471410024011
:104290001C1002401810024080B400AF114B41F2D4
:1042A00007021A600F4B00229A600E4B0022DA6060
:1042B0000C4B00221A610B4B00225A61094B002261
:1042C0009A61084B0022DA61064B00221A62054B04
:1042D0001B68044A43F04003136000BFBD4680BC26
:1042E000704700BF0030014080B582B000AF034688
:1042F0003960FB71002200210020FFF791FB0C4A7E
:10430000FB79D36000BF0A4B9B68DB0903F0010314
:10431000012BF8D0064BDB68DAB23B681A70012239
:1043200000210020FFF77CFB00BF0837BD4680BDA1
:104330000030014080B500AF114B9B6803F00103D2
:10434000012B10D10F4B1B68002B06D00D4B1B68A7
:104350000B4AD268D2B210469847094B9B68084A6C
:1043600023F001039360064B9B685B0803F0010395
:10437000012B02D1044B01221A7000BF80BD00BF87
:1043800000300140AC0100205400002080B500AF97
:10439000114B9B6803F00103012B10D10F4B1B68DD
:1043A000002B06D00D4B1B680B4AD268D2B21046C8
:1043B0009847094B9B68084A23F001039360064B1A
:1043C0009B685B0803F00103012B02D1044B01221F
:1043D0001A7000BF80BD00BF00380040B00100204F
:1043E0005500002080B500AF0B4B4FF082421A60A1
:1043F000094B1B684FF082411846FCF783F80346CF
:104400001A46054B1A60054B01221A60044B022222
:104410001A7000BF80BD00BFBC01002010E000E0AA
:10442000B801002090B583B000AF78601C4B032228
:104430001A701C4B1B681B4A43F001031360194B95
:104440001B68184A23F0020313607868FBF74EFFDD
:104450000246154B1B6819461046FBF79FFF0346A3
:10446000104C1846FCF7EAF80346636000BF0D4B9A
:104470001B6803F48033002BF9D00A4B1B68094AF0
:1044800023F001031360074B00225A60054B002202
:104490009A60034B02221A7000BF0C37BD4690BDD4
:1044A000B801002010E000E0BC01002090B585B00C
:1044B00000AF7860204B03221A700023FB6031E0CC
:1044C0001E4B1B681D4A43F0010313601B4B1B6806
:1044D0001A4A23F002031360194B1B681949184646
:1044E000FBF75CFF0346154C1846FCF7A7F803469C
:1044F000636000BF114B1B6803F48033002BF9D0BD
:104500000E4B1B680D4A23F0010313600B4B002276
:104510005A600A4B00229A60074B02221A70FB680D
:104520000133FB60FA687B689A42C9D300BF00BFC1
:104530001437BD4690BD00BFB801002010E000E078
:10454000BC01002000007A4480B500AF0C4B1B7802
:10455000002B0BD10B4B00221A600A4B00225A6031
:10456000084B00229A60064B02221A70064B1B6809
:10457000002B02D0044B1B68984700BF80BD00BFD2
:10458000B801002010E000E0B40100200D4885468D
:10459000AFF300800C480D490D4A002302E0D458C7
:1045A000C4500433C4188C42F9D30A4A0A4C00237D
:1045B00001E013600432A242FBD300F011F8FEF7D1
:1045C00007FAFEE7005000200000002058000020FD
:1045D0004C49000858000020C0010020FEE7000000
:1045E00070B500260C4D0D4C641BA410A64209D1D9
:1045F00000F01AF800260A4D0A4C641BA410A642CB
:1046000005D170BD55F8043B98470136EEE755F8E3
:10461000043B98470136F2E7444900084449000842
:104620004449000848490008F8B500BFF8BC08BC78
:104630009E467047F8B500BFF8BC08BC9E46704760
:104640000A00010000000000000000005445545220
:1046500049530000506C617900000000546F7020D5
:1046600053636F7265000000546F7020506C617965
:1046700065727300506C61796572204E616D6520C2
:104680003A00000053636F72650000004C65766568
:104690006C00000048492D53636F726500000000F4
:1046A000546574726973000047414D45204F56456B
:1046B00052000000596F75722053636F72653A2083
:1046C00000000000C93F0008312A0008040004016E
:1046D00005010500030004000500060004010400B4
:1046E00005000600050105000400030003000400A6
:1046F0000500040103000400040105010301040195
:10470000040005000000000000005C000000000044
:10471000060006000000287C287C28005C54FE541B
:10472000740044201008440028545420500006000F
:104730000000000038440000000044380000000081
:1047400002070200000010107C101000C0000000E2
:104750000000101010101000400000000000601059
:104760000C0000007C64544C7C00487C400000003D
:10477000645454544800445454546C003C207020F9
:1047800020005C54545424007C5454547400040499
:1047900064140C007C5454547C005C5454547C00CD
:1047A000440000000000C400000000001028440085
:1047B00000002828282828004428100000000804A9
:1047C000540800007C4454545C007C2424247C0065
:1047D0007C5454546C007C44444444007C44444421
:1047E00038007C54545444007C14141404007C4459
:1047F000445474007C1010107C0044447C444400F9
:10480000604040447C007C10102844007C404040C4
:1048100040007C0810087C007C0810207C00384494
:10482000444438007C14141408003C2464243C00E4
:104830007C14141468005C545454740004047C0404
:1048400004007C4040407C000C3040300C003C4078
:1048500030403C004428102844000C1060100C002C
:104860004464544C44007C44000000000C10600080
:104870000000447C000000000001000100004040F6
:10488000404040400001000000007C2424247C00C3
:104890007C5454546C007C44444444007C44444460
:1048A00038007C54545444007C14141404007C4498
:1048B000445474007C1010107C0044447C44440038
:1048C000604040447C007C10102844007C40404004
:1048D00040007C0810087C007C0810207C003844D4
:1048E000444438007C14141408003C2464243C0024
:1048F0007C14141468005C545454740004047C0444
:1049000004007C4040407C000C3040300C003C40B7
:1049100030403C004428102844000C1060100C006B
:104920004464544C4400107C440000006C000000BF
:104930000000447C100000000201020100000000A1
:044940000000000073
:044944005501000811
:044948003101000831
:10494C007D060008ED060008F906000813070008AC
:10495C002D07000847070008610700087B070008BF
:10496C009507000825230008392300089123000827
:10497C004924000871250008C5250008792600087F
:10498C00C12700082929000800000040000400404D
:08499C000008004001010000C9
:040000050800458D1D
:00000001FF
